{
  "address": "0xdb2C7FE37cdA9490592196ddab7c1a3bA616AAd4",
  "abi": [
    {
      "inputs": [
        {
          "internalType": "address",
          "name": "_priceFeedAddress",
          "type": "address"
        }
      ],
      "stateMutability": "nonpayable",
      "type": "constructor"
    },
    {
      "inputs": [],
      "name": "Administration__AlreadyRecordedVehicle",
      "type": "error"
    },
    {
      "inputs": [],
      "name": "Administration__CallFailed",
      "type": "error"
    },
    {
      "inputs": [],
      "name": "Administration__NotOwner",
      "type": "error"
    },
    {
      "inputs": [],
      "name": "Administration__NotRecordedBoxOffice",
      "type": "error"
    },
    {
      "inputs": [],
      "name": "Administration__NotRecordedVehicle",
      "type": "error"
    },
    {
      "stateMutability": "payable",
      "type": "fallback"
    },
    {
      "inputs": [
        {
          "internalType": "address",
          "name": "_owner",
          "type": "address"
        },
        {
          "internalType": "uint64",
          "name": "_HGSNumber",
          "type": "uint64"
        },
        {
          "internalType": "string",
          "name": "_name",
          "type": "string"
        },
        {
          "internalType": "string",
          "name": "_surname",
          "type": "string"
        },
        {
          "internalType": "enum Administration.vehicleType",
          "name": "_vehicleClass",
          "type": "uint8"
        }
      ],
      "name": "addVehicle",
      "outputs": [],
      "stateMutability": "nonpayable",
      "type": "function"
    },
    {
      "inputs": [
        {
          "internalType": "uint256",
          "name": "_CAR_FEE_USD",
          "type": "uint256"
        },
        {
          "internalType": "uint256",
          "name": "_MINIBUS_FEE_USD",
          "type": "uint256"
        },
        {
          "internalType": "uint256",
          "name": "_BUS_FEE_USD",
          "type": "uint256"
        }
      ],
      "name": "createOffice",
      "outputs": [],
      "stateMutability": "nonpayable",
      "type": "function"
    },
    {
      "inputs": [
        {
          "internalType": "address",
          "name": "sender",
          "type": "address"
        }
      ],
      "name": "crossing",
      "outputs": [],
      "stateMutability": "nonpayable",
      "type": "function"
    },
    {
      "inputs": [
        {
          "internalType": "address",
          "name": "_hgsBoxOfficeAddress",
          "type": "address"
        }
      ],
      "name": "deleteOffice",
      "outputs": [],
      "stateMutability": "nonpayable",
      "type": "function"
    },
    {
      "inputs": [
        {
          "internalType": "address",
          "name": "_owner",
          "type": "address"
        }
      ],
      "name": "deleteVehicle",
      "outputs": [],
      "stateMutability": "nonpayable",
      "type": "function"
    },
    {
      "inputs": [
        {
          "internalType": "uint256",
          "name": "ind",
          "type": "uint256"
        }
      ],
      "name": "getOfficeAddress",
      "outputs": [
        {
          "internalType": "address",
          "name": "",
          "type": "address"
        }
      ],
      "stateMutability": "view",
      "type": "function"
    },
    {
      "inputs": [],
      "name": "getPriceFeed",
      "outputs": [
        {
          "internalType": "address",
          "name": "",
          "type": "address"
        }
      ],
      "stateMutability": "view",
      "type": "function"
    },
    {
      "inputs": [],
      "name": "getVehicle",
      "outputs": [
        {
          "components": [
            {
              "internalType": "uint64",
              "name": "HGSNumber",
              "type": "uint64"
            },
            {
              "internalType": "string",
              "name": "name",
              "type": "string"
            },
            {
              "internalType": "string",
              "name": "surname",
              "type": "string"
            },
            {
              "internalType": "enum Administration.vehicleType",
              "name": "vehicleClass",
              "type": "uint8"
            },
            {
              "internalType": "uint64[]",
              "name": "crossingHistories",
              "type": "uint64[]"
            }
          ],
          "internalType": "struct Administration.vehicleStruct",
          "name": "",
          "type": "tuple"
        }
      ],
      "stateMutability": "view",
      "type": "function"
    },
    {
      "inputs": [
        {
          "internalType": "address",
          "name": "_owner",
          "type": "address"
        }
      ],
      "name": "getVehicle",
      "outputs": [
        {
          "components": [
            {
              "internalType": "uint64",
              "name": "HGSNumber",
              "type": "uint64"
            },
            {
              "internalType": "string",
              "name": "name",
              "type": "string"
            },
            {
              "internalType": "string",
              "name": "surname",
              "type": "string"
            },
            {
              "internalType": "enum Administration.vehicleType",
              "name": "vehicleClass",
              "type": "uint8"
            },
            {
              "internalType": "uint64[]",
              "name": "crossingHistories",
              "type": "uint64[]"
            }
          ],
          "internalType": "struct Administration.vehicleStruct",
          "name": "",
          "type": "tuple"
        }
      ],
      "stateMutability": "view",
      "type": "function"
    },
    {
      "inputs": [
        {
          "internalType": "uint256",
          "name": "",
          "type": "uint256"
        }
      ],
      "name": "hgsBoxOfficesAddress",
      "outputs": [
        {
          "internalType": "address",
          "name": "",
          "type": "address"
        }
      ],
      "stateMutability": "view",
      "type": "function"
    },
    {
      "inputs": [],
      "name": "numberOfOffices",
      "outputs": [
        {
          "internalType": "uint256",
          "name": "",
          "type": "uint256"
        }
      ],
      "stateMutability": "view",
      "type": "function"
    },
    {
      "inputs": [],
      "name": "numberOfVehicle",
      "outputs": [
        {
          "internalType": "uint256",
          "name": "",
          "type": "uint256"
        }
      ],
      "stateMutability": "view",
      "type": "function"
    },
    {
      "inputs": [
        {
          "internalType": "address",
          "name": "_hgsBoxOfficeAddress",
          "type": "address"
        },
        {
          "internalType": "uint256",
          "name": "_CAR_FEE_USD",
          "type": "uint256"
        },
        {
          "internalType": "uint256",
          "name": "_MINIBUS_FEE_USD",
          "type": "uint256"
        },
        {
          "internalType": "uint256",
          "name": "_BUS_FEE_USD",
          "type": "uint256"
        }
      ],
      "name": "setFees",
      "outputs": [],
      "stateMutability": "nonpayable",
      "type": "function"
    },
    {
      "inputs": [],
      "name": "totalBalanceOfOffices",
      "outputs": [
        {
          "internalType": "uint256",
          "name": "totalBalance",
          "type": "uint256"
        }
      ],
      "stateMutability": "view",
      "type": "function"
    },
    {
      "inputs": [],
      "name": "withdraw",
      "outputs": [],
      "stateMutability": "payable",
      "type": "function"
    },
    {
      "stateMutability": "payable",
      "type": "receive"
    }
  ],
  "transactionHash": "0x88352d4f828f6c563dd091431aba96fd1c602fb69d2d156116fd52fc9e8b25f7",
  "args": [
    "0x8a753747a1fa494ec906ce90e9f37563a8af630e"
  ],
  "numDeployments": 5,
  "solcInputHash": "837b1803a66aba9183a31da3841944a0",
  "bytecode": "0x60c0604052600060035560006007553480156200001b57600080fd5b5060405162004de938038062004de983398181016040528101906200004191906200011a565b3373ffffffffffffffffffffffffffffffffffffffff1660808173ffffffffffffffffffffffffffffffffffffffff16815250508073ffffffffffffffffffffffffffffffffffffffff1660a08173ffffffffffffffffffffffffffffffffffffffff1681525050506200014c565b600080fd5b600073ffffffffffffffffffffffffffffffffffffffff82169050919050565b6000620000e282620000b5565b9050919050565b620000f481620000d5565b81146200010057600080fd5b50565b6000815190506200011481620000e9565b92915050565b600060208284031215620001335762000132620000b0565b5b6000620001438482850162000103565b91505092915050565b60805160a051614c46620001a36000396000818161047401526118fa0152600081816103eb01528181610675015281816109a701528181610b4a01528181610f61015281816111450152611baf0152614c466000f3fe608060405260043610620001035760003560e01c80637669d48911620000975780639950abae11620000615780639950abae14620003175780639e87a5cd1462000347578063a93ab1011462000377578063da128f4514620003bb576200010b565b80637669d489146200024957806379b0a88a14620002775780638f0e21ef14620002a55780638f2c3cb914620002d3576200010b565b80635098e1eb11620000d95780635098e1eb146200018b578063615bc70614620001b957806361d61f5614620001e95780637237cd651462000219576200010b565b806336790ddf146200010d5780633b90f8c9146200013b5780633ccfd60b146200017f576200010b565b366200010b57005b005b3480156200011a57600080fd5b5062000139600480360381019062000133919062002842565b620003e9565b005b3480156200014857600080fd5b506200016760048036038101906200016191906200289e565b62000633565b60405162000176919062002915565b60405180910390f35b6200018962000673565b005b3480156200019857600080fd5b50620001b76004803603810190620001b1919062002963565b620009a5565b005b348015620001c657600080fd5b50620001d162000b46565b604051620001e09190620029a6565b60405180910390f35b348015620001f657600080fd5b506200020162000ccc565b604051620002109190620029a6565b60405180910390f35b3480156200022657600080fd5b506200023162000cd2565b60405162000240919062002c4d565b60405180910390f35b3480156200025657600080fd5b506200027560048036038101906200026f919062002c71565b62000f5f565b005b3480156200028457600080fd5b50620002a360048036038101906200029d919062002e8d565b62001143565b005b348015620002b257600080fd5b50620002d16004803603810190620002cb919062002963565b620014b1565b005b348015620002e057600080fd5b50620002ff6004803603810190620002f991906200289e565b620018a5565b6040516200030e919062002915565b60405180910390f35b3480156200032457600080fd5b506200032f620018f0565b6040516200033e9190620029a6565b60405180910390f35b3480156200035457600080fd5b506200035f620018f6565b6040516200036e919062002915565b60405180910390f35b3480156200038457600080fd5b50620003a360048036038101906200039d919062002963565b6200191e565b604051620003b2919062002c4d565b60405180910390f35b348015620003c857600080fd5b50620003e76004803603810190620003e1919062002963565b62001bad565b005b7f000000000000000000000000000000000000000000000000000000000000000073ffffffffffffffffffffffffffffffffffffffff163373ffffffffffffffffffffffffffffffffffffffff16146200046f576040517fff66540000000000000000000000000000000000000000000000000000000000815260040160405180910390fd5b6000307f0000000000000000000000000000000000000000000000000000000000000000858585604051620004a490620025ba565b620004b495949392919062002fbe565b604051809103906000f080158015620004d1573d6000803e3d6000fd5b50905060008190506004819080600181540180825580915050600190039060005260206000200160009091909190916101000a81548173ffffffffffffffffffffffffffffffffffffffff021916908373ffffffffffffffffffffffffffffffffffffffff16021790555081600560008373ffffffffffffffffffffffffffffffffffffffff1673ffffffffffffffffffffffffffffffffffffffff16815260200190815260200160002060006101000a81548173ffffffffffffffffffffffffffffffffffffffff021916908373ffffffffffffffffffffffffffffffffffffffff1602179055506001600660008373ffffffffffffffffffffffffffffffffffffffff1673ffffffffffffffffffffffffffffffffffffffff16815260200190815260200160002060006101000a81548160ff0219169083151502179055506007600081548092919062000627906200304a565b91905055505050505050565b600481815481106200064457600080fd5b906000526020600020016000915054906101000a900473ffffffffffffffffffffffffffffffffffffffff1681565b7f000000000000000000000000000000000000000000000000000000000000000073ffffffffffffffffffffffffffffffffffffffff163373ffffffffffffffffffffffffffffffffffffffff1614620006f9576040517fff66540000000000000000000000000000000000000000000000000000000000815260040160405180910390fd5b600060048054806020026020016040519081016040528092919081815260200182805480156200077f57602002820191906000526020600020905b8160009054906101000a900473ffffffffffffffffffffffffffffffffffffffff1673ffffffffffffffffffffffffffffffffffffffff168152602001906001019080831162000734575b5050505050905060005b8151811015620008f85760066000838381518110620007ad57620007ac62003097565b5b602002602001015173ffffffffffffffffffffffffffffffffffffffff1673ffffffffffffffffffffffffffffffffffffffff16815260200190815260200160002060009054906101000a900460ff1615620008e257600560008383815181106200081d576200081c62003097565b5b602002602001015173ffffffffffffffffffffffffffffffffffffffff1673ffffffffffffffffffffffffffffffffffffffff16815260200190815260200160002060009054906101000a900473ffffffffffffffffffffffffffffffffffffffff1673ffffffffffffffffffffffffffffffffffffffff16633ccfd60b6040518163ffffffff1660e01b8152600401600060405180830381600087803b158015620008c857600080fd5b505af1158015620008dd573d6000803e3d6000fd5b505050505b8080620008ef906200304a565b91505062000789565b5060003373ffffffffffffffffffffffffffffffffffffffff16476040516200092190620030fb565b60006040518083038185875af1925050503d806000811462000960576040519150601f19603f3d011682016040523d82523d6000602084013e62000965565b606091505b5050905080620009a1576040517f07b8407600000000000000000000000000000000000000000000000000000000815260040160405180910390fd5b5050565b7f000000000000000000000000000000000000000000000000000000000000000073ffffffffffffffffffffffffffffffffffffffff163373ffffffffffffffffffffffffffffffffffffffff161462000a2b576040517fff66540000000000000000000000000000000000000000000000000000000000815260040160405180910390fd5b6000808273ffffffffffffffffffffffffffffffffffffffff1673ffffffffffffffffffffffffffffffffffffffff168152602001908152602001600020600080820160006101000a81549067ffffffffffffffff021916905560018201600062000a979190620025c8565b60028201600062000aa99190620025c8565b6003820160006101000a81549060ff021916905560048201600062000acf91906200260e565b50506003600081548092919062000ae69062003112565b91905055506000600260008373ffffffffffffffffffffffffffffffffffffffff1673ffffffffffffffffffffffffffffffffffffffff16815260200190815260200160002060006101000a81548160ff02191690831515021790555050565b60007f000000000000000000000000000000000000000000000000000000000000000073ffffffffffffffffffffffffffffffffffffffff163373ffffffffffffffffffffffffffffffffffffffff161462000bce576040517fff66540000000000000000000000000000000000000000000000000000000000815260040160405180910390fd5b6000600480548060200260200160405190810160405280929190818152602001828054801562000c5457602002820191906000526020600020905b8160009054906101000a900473ffffffffffffffffffffffffffffffffffffffff1673ffffffffffffffffffffffffffffffffffffffff168152602001906001019080831162000c09575b505050505090506000805b825181101562000cc35782818151811062000c7f5762000c7e62003097565b5b602002602001015173ffffffffffffffffffffffffffffffffffffffff16318262000cab919062003140565b9150808062000cba906200304a565b91505062000c5f565b50809250505090565b60035481565b62000cdc62002638565b6000803373ffffffffffffffffffffffffffffffffffffffff1673ffffffffffffffffffffffffffffffffffffffff1681526020019081526020016000206040518060a00160405290816000820160009054906101000a900467ffffffffffffffff1667ffffffffffffffff1667ffffffffffffffff16815260200160018201805462000d6990620031aa565b80601f016020809104026020016040519081016040528092919081815260200182805462000d9790620031aa565b801562000de85780601f1062000dbc5761010080835404028352916020019162000de8565b820191906000526020600020905b81548152906001019060200180831162000dca57829003601f168201915b5050505050815260200160028201805462000e0390620031aa565b80601f016020809104026020016040519081016040528092919081815260200182805462000e3190620031aa565b801562000e825780601f1062000e565761010080835404028352916020019162000e82565b820191906000526020600020905b81548152906001019060200180831162000e6457829003601f168201915b505050505081526020016003820160009054906101000a900460ff16600281111562000eb35762000eb262002a82565b5b600281111562000ec85762000ec762002a82565b5b81526020016004820180548060200260200160405190810160405280929190818152602001828054801562000f5157602002820191906000526020600020906000905b82829054906101000a900467ffffffffffffffff1667ffffffffffffffff168152602001906008019060208260070104928301926001038202915080841162000f0b5790505b505050505081525050905090565b7f000000000000000000000000000000000000000000000000000000000000000073ffffffffffffffffffffffffffffffffffffffff163373ffffffffffffffffffffffffffffffffffffffff161462000fe5576040517fff66540000000000000000000000000000000000000000000000000000000000815260040160405180910390fd5b83600660008273ffffffffffffffffffffffffffffffffffffffff1673ffffffffffffffffffffffffffffffffffffffff16815260200190815260200160002060009054906101000a900460ff166200106a576040517ff66b1dba00000000000000000000000000000000000000000000000000000000815260040160405180910390fd5b600560008673ffffffffffffffffffffffffffffffffffffffff1673ffffffffffffffffffffffffffffffffffffffff16815260200190815260200160002060009054906101000a900473ffffffffffffffffffffffffffffffffffffffff1673ffffffffffffffffffffffffffffffffffffffff1663cec10c118585856040518463ffffffff1660e01b81526004016200110893929190620031df565b600060405180830381600087803b1580156200112357600080fd5b505af115801562001138573d6000803e3d6000fd5b505050505050505050565b7f000000000000000000000000000000000000000000000000000000000000000073ffffffffffffffffffffffffffffffffffffffff163373ffffffffffffffffffffffffffffffffffffffff1614620011c9576040517fff66540000000000000000000000000000000000000000000000000000000000815260040160405180910390fd5b84600260008273ffffffffffffffffffffffffffffffffffffffff1673ffffffffffffffffffffffffffffffffffffffff16815260200190815260200160002060009054906101000a900460ff16156200124f576040517fc19fa9ac00000000000000000000000000000000000000000000000000000000815260040160405180910390fd5b6040518060a001604052808667ffffffffffffffff1681526020018581526020018481526020018360028111156200128c576200128b62002a82565b5b8152602001600067ffffffffffffffff811115620012af57620012ae62002d1e565b5b604051908082528060200260200182016040528015620012de5781602001602082028036833780820191505090505b508152506000808873ffffffffffffffffffffffffffffffffffffffff1673ffffffffffffffffffffffffffffffffffffffff16815260200190815260200160002060008201518160000160006101000a81548167ffffffffffffffff021916908367ffffffffffffffff1602179055506020820151816001019081620013669190620033e4565b5060408201518160020190816200137e9190620033e4565b5060608201518160030160006101000a81548160ff02191690836002811115620013ad57620013ac62002a82565b5b02179055506080820151816004019080519060200190620013d092919062002686565b509050506001869080600181540180825580915050600190039060005260206000200160009091909190916101000a81548173ffffffffffffffffffffffffffffffffffffffff021916908373ffffffffffffffffffffffffffffffffffffffff1602179055506001600260008873ffffffffffffffffffffffffffffffffffffffff1673ffffffffffffffffffffffffffffffffffffffff16815260200190815260200160002060006101000a81548160ff02191690831515021790555060036000815480929190620014a4906200304a565b9190505550505050505050565b600660003373ffffffffffffffffffffffffffffffffffffffff1673ffffffffffffffffffffffffffffffffffffffff16815260200190815260200160002060009054906101000a900460ff1662001535576040517ff66b1dba00000000000000000000000000000000000000000000000000000000815260040160405180910390fd5b80600260008273ffffffffffffffffffffffffffffffffffffffff1673ffffffffffffffffffffffffffffffffffffffff16815260200190815260200160002060009054906101000a900460ff16620015ba576040517f01e95d3100000000000000000000000000000000000000000000000000000000815260040160405180910390fd5b620015c462002749565b620015d94267ffffffffffffffff1662001e51565b816000018190525082816020019073ffffffffffffffffffffffffffffffffffffffff16908173ffffffffffffffffffffffffffffffffffffffff168152505060006200163282600001516000015161ffff16620020a8565b6200164883600001516020015160ff16620020a8565b6200165e84600001516040015160ff16620020a8565b604051602001620016729392919062003533565b60405160208183030381529060405290506008816040516200169591906200358c565b908152602001604051809103902082908060018154018082558091505060019003906000526020600020906002020160009091909190915060008201518160000160008201518160000160006101000a81548161ffff021916908361ffff16021790555060208201518160000160026101000a81548160ff021916908360ff16021790555060408201518160000160036101000a81548160ff021916908360ff16021790555060608201518160000160046101000a81548160ff021916908360ff16021790555060808201518160000160056101000a81548160ff021916908360ff16021790555060a08201518160000160066101000a81548160ff021916908360ff16021790555060c08201518160000160076101000a81548160ff021916908360ff160217905550505060208201518160010160006101000a81548173ffffffffffffffffffffffffffffffffffffffff021916908373ffffffffffffffffffffffffffffffffffffffff16021790555050506000808573ffffffffffffffffffffffffffffffffffffffff1673ffffffffffffffffffffffffffffffffffffffff1681526020019081526020016000206004014290806001815401808255809150506001900390600052602060002090600491828204019190066008029091909190916101000a81548167ffffffffffffffff021916908367ffffffffffffffff16021790555050505050565b600060048281548110620018be57620018bd62003097565b5b9060005260206000200160009054906101000a900473ffffffffffffffffffffffffffffffffffffffff169050919050565b60075481565b60007f0000000000000000000000000000000000000000000000000000000000000000905090565b6200192862002638565b6000808373ffffffffffffffffffffffffffffffffffffffff1673ffffffffffffffffffffffffffffffffffffffff1681526020019081526020016000206040518060a00160405290816000820160009054906101000a900467ffffffffffffffff1667ffffffffffffffff1667ffffffffffffffff168152602001600182018054620019b590620031aa565b80601f0160208091040260200160405190810160405280929190818152602001828054620019e390620031aa565b801562001a345780601f1062001a085761010080835404028352916020019162001a34565b820191906000526020600020905b81548152906001019060200180831162001a1657829003601f168201915b5050505050815260200160028201805462001a4f90620031aa565b80601f016020809104026020016040519081016040528092919081815260200182805462001a7d90620031aa565b801562001ace5780601f1062001aa25761010080835404028352916020019162001ace565b820191906000526020600020905b81548152906001019060200180831162001ab057829003601f168201915b505050505081526020016003820160009054906101000a900460ff16600281111562001aff5762001afe62002a82565b5b600281111562001b145762001b1362002a82565b5b81526020016004820180548060200260200160405190810160405280929190818152602001828054801562001b9d57602002820191906000526020600020906000905b82829054906101000a900467ffffffffffffffff1667ffffffffffffffff168152602001906008019060208260070104928301926001038202915080841162001b575790505b5050505050815250509050919050565b7f000000000000000000000000000000000000000000000000000000000000000073ffffffffffffffffffffffffffffffffffffffff163373ffffffffffffffffffffffffffffffffffffffff161462001c33576040517fff66540000000000000000000000000000000000000000000000000000000000815260040160405180910390fd5b80600660008273ffffffffffffffffffffffffffffffffffffffff1673ffffffffffffffffffffffffffffffffffffffff16815260200190815260200160002060009054906101000a900460ff1662001cb8576040517ff66b1dba00000000000000000000000000000000000000000000000000000000815260040160405180910390fd5b600560008373ffffffffffffffffffffffffffffffffffffffff1673ffffffffffffffffffffffffffffffffffffffff16815260200190815260200160002060009054906101000a900473ffffffffffffffffffffffffffffffffffffffff1673ffffffffffffffffffffffffffffffffffffffff16633ccfd60b6040518163ffffffff1660e01b8152600401600060405180830381600087803b15801562001d6057600080fd5b505af115801562001d75573d6000803e3d6000fd5b50505050600560008373ffffffffffffffffffffffffffffffffffffffff1673ffffffffffffffffffffffffffffffffffffffff16815260200190815260200160002060006101000a81549073ffffffffffffffffffffffffffffffffffffffff02191690556000600660008473ffffffffffffffffffffffffffffffffffffffff1673ffffffffffffffffffffffffffffffffffffffff16815260200190815260200160002060006101000a81548160ff0219169083151502179055506007600081548092919062001e489062003112565b91905055505050565b62001e5b62002781565b6000808062001e6962002781565b62001e748662002221565b816000019061ffff16908161ffff168152505062001e986107b261ffff166200235c565b62001eab826000015161ffff166200235c565b62001eb79190620035a5565b9250826301e2850062001ecb9190620035e0565b8462001ed8919062003140565b9350826107b2826000015162001eef91906200364f565b61ffff1662001eff9190620035a5565b6301e1338062001f109190620035e0565b8462001f1d919062003140565b93506000600192505b600c8360ff161162001fab5762001f42838360000151620023bc565b60ff166201518062001f559190620035e0565b905086858262001f66919062003140565b111562001f855782826020019060ff16908160ff168152505062001fab565b808562001f93919062003140565b9450828062001fa29062003699565b93505062001f26565b600192505b62001fc482602001518360000151620023bc565b60ff168360ff16116200202b5786856201518062001fe3919062003140565b1115620020025782826040019060ff16908160ff16815250506200202b565b620151808562002013919062003140565b94508280620020229062003699565b93505062001fb0565b620020368762002499565b826060019060ff16908160ff16815250506200205287620024cc565b826080019060ff16908160ff16815250506200206e87620024f1565b8260a0019060ff16908160ff16815250506200208a8762002509565b8260c0019060ff16908160ff16815250508195505050505050919050565b606060008203620020f1576040518060400160405280600181526020017f300000000000000000000000000000000000000000000000000000000000000081525090506200221c565b600082905060005b60008214620021295780806200210f906200304a565b915050600a82620021219190620036f6565b9150620020f9565b60008167ffffffffffffffff81111562002148576200214762002d1e565b5b6040519080825280601f01601f1916602001820160405280156200217b5781602001600182028036833780820191505090505b5090505b600085146200221557600182620021979190620035a5565b9150600a85620021a891906200372e565b6030620021b6919062003140565b60f81b818381518110620021cf57620021ce62003097565b5b60200101907effffffffffffffffffffffffffffffffffffffffffffffffffffffffffffff1916908160001a905350600a856200220d9190620036f6565b94506200217f565b8093505050505b919050565b600080600090506000806301e13380856200223d9190620036f6565b6107b261ffff1662002250919062003140565b9150620022636107b261ffff166200235c565b620022728361ffff166200235c565b6200227e9190620035a5565b9050806301e28500620022929190620035e0565b836200229f919062003140565b9250806107b283620022b291906200364f565b61ffff16620022c29190620035a5565b6301e13380620022d39190620035e0565b83620022e0919062003140565b92505b84831115620023515762002305600183620022ff91906200364f565b6200253f565b1562002325576301e28500836200231d9190620035a5565b92506200233a565b6301e1338083620023379190620035a5565b92505b6001826200234991906200364f565b9150620022e3565b819350505050919050565b60006001826200236d9190620035a5565b9150610190826200237f9190620036f6565b6064836200238e9190620036f6565b6004846200239d9190620036f6565b620023a99190620035a5565b620023b5919062003140565b9050919050565b600060018360ff161480620023d4575060038360ff16145b80620023e3575060058360ff16145b80620023f2575060078360ff16145b8062002401575060088360ff16145b80620024105750600a8360ff16145b806200241f5750600c8360ff16145b156200242f57601f905062002493565b60048360ff16148062002445575060068360ff16145b8062002454575060098360ff16145b80620024635750600b8360ff16145b156200247357601e905062002493565b6200247e826200253f565b156200248e57601d905062002493565b601c90505b92915050565b60006018603c8084620024ad9190620036f6565b620024b99190620036f6565b620024c591906200372e565b9050919050565b6000603c8083620024de9190620036f6565b620024ea91906200372e565b9050919050565b6000603c826200250291906200372e565b9050919050565b6000600760046201518084620025209190620036f6565b6200252c919062003140565b6200253891906200372e565b9050919050565b60008060048362002551919062003766565b61ffff1614620025655760009050620025b5565b600060648362002576919062003766565b61ffff16146200258a5760019050620025b5565b6000610190836200259c919062003766565b61ffff1614620025b05760009050620025b5565b600190505b919050565b611472806200379f83390190565b508054620025d690620031aa565b6000825580601f10620025ea57506200260b565b601f0160209004906000526020600020908101906200260a9190620027d4565b5b50565b508054600082556003016004900490600052602060002090810190620026359190620027d4565b50565b6040518060a00160405280600067ffffffffffffffff16815260200160608152602001606081526020016000600281111562002679576200267862002a82565b5b8152602001606081525090565b82805482825590600052602060002090600301600490048101928215620027365791602002820160005b83821115620026fe57835183826101000a81548167ffffffffffffffff021916908367ffffffffffffffff1602179055509260200192600801602081600701049283019260010302620026b0565b8015620027345782816101000a81549067ffffffffffffffff0219169055600801602081600701049283019260010302620026fe565b505b509050620027459190620027d4565b5090565b60405180604001604052806200275e62002781565b8152602001600073ffffffffffffffffffffffffffffffffffffffff1681525090565b6040518060e00160405280600061ffff168152602001600060ff168152602001600060ff168152602001600060ff168152602001600060ff168152602001600060ff168152602001600060ff1681525090565b5b80821115620027ef576000816000905550600101620027d5565b5090565b6000604051905090565b600080fd5b600080fd5b6000819050919050565b6200281c8162002807565b81146200282857600080fd5b50565b6000813590506200283c8162002811565b92915050565b6000806000606084860312156200285e576200285d620027fd565b5b60006200286e868287016200282b565b935050602062002881868287016200282b565b925050604062002894868287016200282b565b9150509250925092565b600060208284031215620028b757620028b6620027fd565b5b6000620028c7848285016200282b565b91505092915050565b600073ffffffffffffffffffffffffffffffffffffffff82169050919050565b6000620028fd82620028d0565b9050919050565b6200290f81620028f0565b82525050565b60006020820190506200292c600083018462002904565b92915050565b6200293d81620028f0565b81146200294957600080fd5b50565b6000813590506200295d8162002932565b92915050565b6000602082840312156200297c576200297b620027fd565b5b60006200298c848285016200294c565b91505092915050565b620029a08162002807565b82525050565b6000602082019050620029bd600083018462002995565b92915050565b600067ffffffffffffffff82169050919050565b620029e281620029c3565b82525050565b600081519050919050565b600082825260208201905092915050565b60005b8381101562002a2457808201518184015260208101905062002a07565b60008484015250505050565b6000601f19601f8301169050919050565b600062002a4e82620029e8565b62002a5a8185620029f3565b935062002a6c81856020860162002a04565b62002a778162002a30565b840191505092915050565b7f4e487b7100000000000000000000000000000000000000000000000000000000600052602160045260246000fd5b6003811062002ac55762002ac462002a82565b5b50565b600081905062002ad88262002ab1565b919050565b600062002aea8262002ac8565b9050919050565b62002afc8162002add565b82525050565b600081519050919050565b600082825260208201905092915050565b6000819050602082019050919050565b600062002b3c8383620029d7565b60208301905092915050565b6000602082019050919050565b600062002b628262002b02565b62002b6e818562002b0d565b935062002b7b8362002b1e565b8060005b8381101562002bb257815162002b96888262002b2e565b975062002ba38362002b48565b92505060018101905062002b7f565b5085935050505092915050565b600060a08301600083015162002bd96000860182620029d7565b506020830151848203602086015262002bf3828262002a41565b9150506040830151848203604086015262002c0f828262002a41565b915050606083015162002c26606086018262002af1565b506080830151848203608086015262002c40828262002b55565b9150508091505092915050565b6000602082019050818103600083015262002c69818462002bbf565b905092915050565b6000806000806080858703121562002c8e5762002c8d620027fd565b5b600062002c9e878288016200294c565b945050602062002cb1878288016200282b565b935050604062002cc4878288016200282b565b925050606062002cd7878288016200282b565b91505092959194509250565b62002cee81620029c3565b811462002cfa57600080fd5b50565b60008135905062002d0e8162002ce3565b92915050565b600080fd5b600080fd5b7f4e487b7100000000000000000000000000000000000000000000000000000000600052604160045260246000fd5b62002d588262002a30565b810181811067ffffffffffffffff8211171562002d7a5762002d7962002d1e565b5b80604052505050565b600062002d8f620027f3565b905062002d9d828262002d4d565b919050565b600067ffffffffffffffff82111562002dc05762002dbf62002d1e565b5b62002dcb8262002a30565b9050602081019050919050565b82818337600083830152505050565b600062002dfe62002df88462002da2565b62002d83565b90508281526020810184848401111562002e1d5762002e1c62002d19565b5b62002e2a84828562002dd8565b509392505050565b600082601f83011262002e4a5762002e4962002d14565b5b813562002e5c84826020860162002de7565b91505092915050565b6003811062002e7357600080fd5b50565b60008135905062002e878162002e65565b92915050565b600080600080600060a0868803121562002eac5762002eab620027fd565b5b600062002ebc888289016200294c565b955050602062002ecf8882890162002cfd565b945050604086013567ffffffffffffffff81111562002ef35762002ef262002802565b5b62002f018882890162002e32565b935050606086013567ffffffffffffffff81111562002f255762002f2462002802565b5b62002f338882890162002e32565b925050608062002f468882890162002e76565b9150509295509295909350565b6000819050919050565b600062002f7e62002f7862002f7284620028d0565b62002f53565b620028d0565b9050919050565b600062002f928262002f5d565b9050919050565b600062002fa68262002f85565b9050919050565b62002fb88162002f99565b82525050565b600060a08201905062002fd5600083018862002fad565b62002fe4602083018762002904565b62002ff3604083018662002995565b62003002606083018562002995565b62003011608083018462002995565b9695505050505050565b7f4e487b7100000000000000000000000000000000000000000000000000000000600052601160045260246000fd5b6000620030578262002807565b91507fffffffffffffffffffffffffffffffffffffffffffffffffffffffffffffffff82036200308c576200308b6200301b565b5b600182019050919050565b7f4e487b7100000000000000000000000000000000000000000000000000000000600052603260045260246000fd5b600081905092915050565b50565b6000620030e3600083620030c6565b9150620030f082620030d1565b600082019050919050565b60006200310882620030d4565b9150819050919050565b60006200311f8262002807565b9150600082036200313557620031346200301b565b5b600182039050919050565b60006200314d8262002807565b91506200315a8362002807565b92508282019050808211156200317557620031746200301b565b5b92915050565b7f4e487b7100000000000000000000000000000000000000000000000000000000600052602260045260246000fd5b60006002820490506001821680620031c357607f821691505b602082108103620031d957620031d86200317b565b5b50919050565b6000606082019050620031f6600083018662002995565b62003205602083018562002995565b62003214604083018462002995565b949350505050565b60008190508160005260206000209050919050565b60006020601f8301049050919050565b600082821b905092915050565b600060088302620032807fffffffffffffffffffffffffffffffffffffffffffffffffffffffffffffffff8262003241565b6200328c868362003241565b95508019841693508086168417925050509392505050565b6000620032c5620032bf620032b98462002807565b62002f53565b62002807565b9050919050565b6000819050919050565b620032e183620032a4565b620032f9620032f082620032cc565b8484546200324e565b825550505050565b600090565b6200331062003301565b6200331d818484620032d6565b505050565b5b8181101562003345576200333960008262003306565b60018101905062003323565b5050565b601f82111562003394576200335e816200321c565b620033698462003231565b8101602085101562003379578190505b62003391620033888562003231565b83018262003322565b50505b505050565b600082821c905092915050565b6000620033b96000198460080262003399565b1980831691505092915050565b6000620033d48383620033a6565b9150826002028217905092915050565b620033ef82620029e8565b67ffffffffffffffff8111156200340b576200340a62002d1e565b5b620034178254620031aa565b6200342482828562003349565b600060209050601f8311600181146200345c576000841562003447578287015190505b620034538582620033c6565b865550620034c3565b601f1984166200346c866200321c565b60005b8281101562003496578489015182556001820191506020850194506020810190506200346f565b86831015620034b65784890151620034b2601f891682620033a6565b8355505b6001600288020188555050505b505050505050565b600081905092915050565b6000620034e382620029e8565b620034ef8185620034cb565b93506200350181856020860162002a04565b80840191505092915050565b7f2e00000000000000000000000000000000000000000000000000000000000000815250565b6000620035418286620034d6565b91506200354e826200350d565b600182019150620035608285620034d6565b91506200356d826200350d565b6001820191506200357f8284620034d6565b9150819050949350505050565b60006200359a8284620034d6565b915081905092915050565b6000620035b28262002807565b9150620035bf8362002807565b9250828203905081811115620035da57620035d96200301b565b5b92915050565b6000620035ed8262002807565b9150620035fa8362002807565b9250817fffffffffffffffffffffffffffffffffffffffffffffffffffffffffffffffff04831182151516156200363657620036356200301b565b5b828202905092915050565b600061ffff82169050919050565b60006200365c8262003641565b9150620036698362003641565b9250828203905061ffff8111156200368657620036856200301b565b5b92915050565b600060ff82169050919050565b6000620036a6826200368c565b915060ff8203620036bc57620036bb6200301b565b5b600182019050919050565b7f4e487b7100000000000000000000000000000000000000000000000000000000600052601260045260246000fd5b6000620037038262002807565b9150620037108362002807565b925082620037235762003722620036c7565b5b828204905092915050565b60006200373b8262002807565b9150620037488362002807565b9250826200375b576200375a620036c7565b5b828206905092915050565b6000620037738262003641565b9150620037808362003641565b925082620037935762003792620036c7565b5b82820690509291505056fe60e06040523480156200001157600080fd5b5060405162001472380380620014728339818101604052810190620000379190620001f1565b3373ffffffffffffffffffffffffffffffffffffffff1660808173ffffffffffffffffffffffffffffffffffffffff16815250508373ffffffffffffffffffffffffffffffffffffffff1660a08173ffffffffffffffffffffffffffffffffffffffff16815250508473ffffffffffffffffffffffffffffffffffffffff1660c08173ffffffffffffffffffffffffffffffffffffffff1681525050826000819055508160018190555080600281905550505050505062000279565b600080fd5b600073ffffffffffffffffffffffffffffffffffffffff82169050919050565b60006200012582620000f8565b9050919050565b6000620001398262000118565b9050919050565b6200014b816200012c565b81146200015757600080fd5b50565b6000815190506200016b8162000140565b92915050565b60006200017e82620000f8565b9050919050565b620001908162000171565b81146200019c57600080fd5b50565b600081519050620001b08162000185565b92915050565b6000819050919050565b620001cb81620001b6565b8114620001d757600080fd5b50565b600081519050620001eb81620001c0565b92915050565b600080600080600060a0868803121562000210576200020f620000f3565b5b600062000220888289016200015a565b955050602062000233888289016200019f565b94505060406200024688828901620001da565b93505060606200025988828901620001da565b92505060806200026c88828901620001da565b9150509295509295909350565b60805160a05160c0516111ad620002c560003960008181610178015281816103330152818161041701526105e50152600061021e0152600081816104a6015261068901526111ad6000f3fe6080604052600436106100745760003560e01c80637237cd651161004e5780637237cd65146100ed578063c9b0599514610118578063cec10c1114610122578063cf3939f71461014b57610083565b80633ccfd60b1461008d5780634b54d3e0146100975780635f1e8a1b146100c257610083565b3661008357610081610176565b005b61008b610176565b005b6100956104a4565b005b3480156100a357600080fd5b506100ac6105cf565b6040516100b99190610845565b60405180910390f35b3480156100ce57600080fd5b506100d76105d5565b6040516100e49190610845565b60405180910390f35b3480156100f957600080fd5b506101026105db565b60405161010f9190610abd565b60405180910390f35b610120610176565b005b34801561012e57600080fd5b5061014960048036038101906101449190610b1f565b610687565b005b34801561015757600080fd5b50610160610726565b60405161016d9190610845565b60405180910390f35b7f000000000000000000000000000000000000000000000000000000000000000073ffffffffffffffffffffffffffffffffffffffff1663a93ab101336040518263ffffffff1660e01b81526004016101cf9190610bb3565b600060405180830381865afa1580156101ec573d6000803e3d6000fd5b505050506040513d6000823e3d601f19601f820116820180604052508101906102159190610ef7565b6060015161024c7f00000000000000000000000000000000000000000000000000000000000000003461072c90919063ffffffff16565b600060028111156102605761025f610913565b5b82600281111561027357610272610913565b5b148015610281575060005481105b806102bd57506001600281111561029b5761029a610913565b5b8260028111156102ae576102ad610913565b5b1480156102bc575060015481105b5b806102f857506002808111156102d6576102d5610913565b5b8260028111156102e9576102e8610913565b5b1480156102f7575060025481105b5b1561032f576040517f8039304e00000000000000000000000000000000000000000000000000000000815260040160405180910390fd5b60007f000000000000000000000000000000000000000000000000000000000000000073ffffffffffffffffffffffffffffffffffffffff1663a93ab101336040518263ffffffff1660e01b815260040161038a9190610bb3565b600060405180830381865afa1580156103a7573d6000803e3d6000fd5b505050506040513d6000823e3d601f19601f820116820180604052508101906103d09190610ef7565b6000015167ffffffffffffffff1603610415576040517fa66b556900000000000000000000000000000000000000000000000000000000815260040160405180910390fd5b7f000000000000000000000000000000000000000000000000000000000000000073ffffffffffffffffffffffffffffffffffffffff16638f0e21ef336040518263ffffffff1660e01b815260040161046e9190610bb3565b600060405180830381600087803b15801561048857600080fd5b505af115801561049c573d6000803e3d6000fd5b505050505050565b7f000000000000000000000000000000000000000000000000000000000000000073ffffffffffffffffffffffffffffffffffffffff163373ffffffffffffffffffffffffffffffffffffffff1614610529576040517f1859b4ce00000000000000000000000000000000000000000000000000000000815260040160405180910390fd5b60003373ffffffffffffffffffffffffffffffffffffffff164760405161054f90610f71565b60006040518083038185875af1925050503d806000811461058c576040519150601f19603f3d011682016040523d82523d6000602084013e610591565b606091505b50509050806105cc576040517fb863ed9c00000000000000000000000000000000000000000000000000000000815260040160405180910390fd5b50565b60025481565b60005481565b6105e36107e1565b7f000000000000000000000000000000000000000000000000000000000000000073ffffffffffffffffffffffffffffffffffffffff1663a93ab101336040518263ffffffff1660e01b815260040161063c9190610bb3565b600060405180830381865afa158015610659573d6000803e3d6000fd5b505050506040513d6000823e3d601f19601f820116820180604052508101906106829190610ef7565b905090565b7f000000000000000000000000000000000000000000000000000000000000000073ffffffffffffffffffffffffffffffffffffffff163373ffffffffffffffffffffffffffffffffffffffff161461070c576040517f1859b4ce00000000000000000000000000000000000000000000000000000000815260040160405180910390fd5b826000819055508160018190555080600281905550505050565b60015481565b60006a52b7d2dcc80cd2e400000061074383610760565b8461074e9190610fb5565b610758919061103e565b905092915050565b6000808273ffffffffffffffffffffffffffffffffffffffff1663feaf968c6040518163ffffffff1660e01b815260040160a060405180830381865afa1580156107ae573d6000803e3d6000fd5b505050506040513d601f19601f820116820180604052508101906107d291906110fc565b50505091505080915050919050565b6040518060a00160405280600067ffffffffffffffff16815260200160608152602001606081526020016000600281111561081f5761081e610913565b5b8152602001606081525090565b6000819050919050565b61083f8161082c565b82525050565b600060208201905061085a6000830184610836565b92915050565b600067ffffffffffffffff82169050919050565b61087d81610860565b82525050565b600081519050919050565b600082825260208201905092915050565b60005b838110156108bd5780820151818401526020810190506108a2565b60008484015250505050565b6000601f19601f8301169050919050565b60006108e582610883565b6108ef818561088e565b93506108ff81856020860161089f565b610908816108c9565b840191505092915050565b7f4e487b7100000000000000000000000000000000000000000000000000000000600052602160045260246000fd5b6003811061095357610952610913565b5b50565b600081905061096482610942565b919050565b600061097482610956565b9050919050565b61098481610969565b82525050565b600081519050919050565b600082825260208201905092915050565b6000819050602082019050919050565b60006109c28383610874565b60208301905092915050565b6000602082019050919050565b60006109e68261098a565b6109f08185610995565b93506109fb836109a6565b8060005b83811015610a2c578151610a1388826109b6565b9750610a1e836109ce565b9250506001810190506109ff565b5085935050505092915050565b600060a083016000830151610a516000860182610874565b5060208301518482036020860152610a6982826108da565b91505060408301518482036040860152610a8382826108da565b9150506060830151610a98606086018261097b565b5060808301518482036080860152610ab082826109db565b9150508091505092915050565b60006020820190508181036000830152610ad78184610a39565b905092915050565b6000604051905090565b600080fd5b600080fd5b610afc8161082c565b8114610b0757600080fd5b50565b600081359050610b1981610af3565b92915050565b600080600060608486031215610b3857610b37610ae9565b5b6000610b4686828701610b0a565b9350506020610b5786828701610b0a565b9250506040610b6886828701610b0a565b9150509250925092565b600073ffffffffffffffffffffffffffffffffffffffff82169050919050565b6000610b9d82610b72565b9050919050565b610bad81610b92565b82525050565b6000602082019050610bc86000830184610ba4565b92915050565b600080fd5b7f4e487b7100000000000000000000000000000000000000000000000000000000600052604160045260246000fd5b610c0b826108c9565b810181811067ffffffffffffffff82111715610c2a57610c29610bd3565b5b80604052505050565b6000610c3d610adf565b9050610c498282610c02565b919050565b600080fd5b610c5c81610860565b8114610c6757600080fd5b50565b600081519050610c7981610c53565b92915050565b600080fd5b600080fd5b600067ffffffffffffffff821115610ca457610ca3610bd3565b5b610cad826108c9565b9050602081019050919050565b6000610ccd610cc884610c89565b610c33565b905082815260208101848484011115610ce957610ce8610c84565b5b610cf484828561089f565b509392505050565b600082601f830112610d1157610d10610c7f565b5b8151610d21848260208601610cba565b91505092915050565b60038110610d3757600080fd5b50565b600081519050610d4981610d2a565b92915050565b600067ffffffffffffffff821115610d6a57610d69610bd3565b5b602082029050602081019050919050565b600080fd5b6000610d93610d8e84610d4f565b610c33565b90508083825260208201905060208402830185811115610db657610db5610d7b565b5b835b81811015610ddf5780610dcb8882610c6a565b845260208401935050602081019050610db8565b5050509392505050565b600082601f830112610dfe57610dfd610c7f565b5b8151610e0e848260208601610d80565b91505092915050565b600060a08284031215610e2d57610e2c610bce565b5b610e3760a0610c33565b90506000610e4784828501610c6a565b600083015250602082015167ffffffffffffffff811115610e6b57610e6a610c4e565b5b610e7784828501610cfc565b602083015250604082015167ffffffffffffffff811115610e9b57610e9a610c4e565b5b610ea784828501610cfc565b6040830152506060610ebb84828501610d3a565b606083015250608082015167ffffffffffffffff811115610edf57610ede610c4e565b5b610eeb84828501610de9565b60808301525092915050565b600060208284031215610f0d57610f0c610ae9565b5b600082015167ffffffffffffffff811115610f2b57610f2a610aee565b5b610f3784828501610e17565b91505092915050565b600081905092915050565b50565b6000610f5b600083610f40565b9150610f6682610f4b565b600082019050919050565b6000610f7c82610f4e565b9150819050919050565b7f4e487b7100000000000000000000000000000000000000000000000000000000600052601160045260246000fd5b6000610fc08261082c565b9150610fcb8361082c565b9250817fffffffffffffffffffffffffffffffffffffffffffffffffffffffffffffffff048311821515161561100457611003610f86565b5b828202905092915050565b7f4e487b7100000000000000000000000000000000000000000000000000000000600052601260045260246000fd5b60006110498261082c565b91506110548361082c565b9250826110645761106361100f565b5b828204905092915050565b600069ffffffffffffffffffff82169050919050565b61108e8161106f565b811461109957600080fd5b50565b6000815190506110ab81611085565b92915050565b6000819050919050565b6110c4816110b1565b81146110cf57600080fd5b50565b6000815190506110e1816110bb565b92915050565b6000815190506110f681610af3565b92915050565b600080600080600060a0868803121561111857611117610ae9565b5b60006111268882890161109c565b9550506020611137888289016110d2565b9450506040611148888289016110e7565b9350506060611159888289016110e7565b925050608061116a8882890161109c565b915050929550929590935056fea26469706673582212200274e3bf92db323a7c9d0e9000e032e29a266c6f5c049eaa78a82a4657032eb764736f6c63430008100033a264697066735822122069e7a615bdd6c5d243b8c369eead442d4ce15fd13e72e19d95ad71775fb8d2a264736f6c63430008100033",
  "devdoc": {
    "kind": "dev",
    "methods": {},
    "version": 1
  },
  "userdoc": {
    "kind": "user",
    "methods": {},
    "version": 1
  },
  "storageLayout": {
    "storage": [
      {
        "astId": 91,
        "contract": "contracts/Administration.sol:Administration",
        "label": "registeredVehicles",
        "offset": 0,
        "slot": "0",
        "type": "t_mapping(t_address,t_struct(vehicleStruct)80_storage)"
      },
      {
        "astId": 94,
        "contract": "contracts/Administration.sol:Administration",
        "label": "registeredVehiclesAddress",
        "offset": 0,
        "slot": "1",
        "type": "t_array(t_address)dyn_storage"
      },
      {
        "astId": 98,
        "contract": "contracts/Administration.sol:Administration",
        "label": "vehicleExists",
        "offset": 0,
        "slot": "2",
        "type": "t_mapping(t_address,t_bool)"
      },
      {
        "astId": 101,
        "contract": "contracts/Administration.sol:Administration",
        "label": "numberOfVehicle",
        "offset": 0,
        "slot": "3",
        "type": "t_uint256"
      },
      {
        "astId": 108,
        "contract": "contracts/Administration.sol:Administration",
        "label": "hgsBoxOfficesAddress",
        "offset": 0,
        "slot": "4",
        "type": "t_array(t_address)dyn_storage"
      },
      {
        "astId": 113,
        "contract": "contracts/Administration.sol:Administration",
        "label": "hgsBoxOffices",
        "offset": 0,
        "slot": "5",
        "type": "t_mapping(t_address,t_contract(HGSBoxOffice)1661)"
      },
      {
        "astId": 117,
        "contract": "contracts/Administration.sol:Administration",
        "label": "hgsBoxOfficesExists",
        "offset": 0,
        "slot": "6",
        "type": "t_mapping(t_address,t_bool)"
      },
      {
        "astId": 120,
        "contract": "contracts/Administration.sol:Administration",
        "label": "numberOfOffices",
        "offset": 0,
        "slot": "7",
        "type": "t_uint256"
      },
      {
        "astId": 126,
        "contract": "contracts/Administration.sol:Administration",
        "label": "dailyPass",
        "offset": 0,
        "slot": "8",
        "type": "t_mapping(t_string_memory_ptr,t_array(t_struct(VehicleCrossingTime)86_storage)dyn_storage)"
      }
    ],
    "types": {
      "t_address": {
        "encoding": "inplace",
        "label": "address",
        "numberOfBytes": "20"
      },
      "t_array(t_address)dyn_storage": {
        "base": "t_address",
        "encoding": "dynamic_array",
        "label": "address[]",
        "numberOfBytes": "32"
      },
      "t_array(t_struct(VehicleCrossingTime)86_storage)dyn_storage": {
        "base": "t_struct(VehicleCrossingTime)86_storage",
        "encoding": "dynamic_array",
        "label": "struct Administration.VehicleCrossingTime[]",
        "numberOfBytes": "32"
      },
      "t_array(t_uint64)dyn_storage": {
        "base": "t_uint64",
        "encoding": "dynamic_array",
        "label": "uint64[]",
        "numberOfBytes": "32"
      },
      "t_bool": {
        "encoding": "inplace",
        "label": "bool",
        "numberOfBytes": "1"
      },
      "t_contract(HGSBoxOffice)1661": {
        "encoding": "inplace",
        "label": "contract HGSBoxOffice",
        "numberOfBytes": "20"
      },
      "t_enum(vehicleType)67": {
        "encoding": "inplace",
        "label": "enum Administration.vehicleType",
        "numberOfBytes": "1"
      },
      "t_mapping(t_address,t_bool)": {
        "encoding": "mapping",
        "key": "t_address",
        "label": "mapping(address => bool)",
        "numberOfBytes": "32",
        "value": "t_bool"
      },
      "t_mapping(t_address,t_contract(HGSBoxOffice)1661)": {
        "encoding": "mapping",
        "key": "t_address",
        "label": "mapping(address => contract HGSBoxOffice)",
        "numberOfBytes": "32",
        "value": "t_contract(HGSBoxOffice)1661"
      },
      "t_mapping(t_address,t_struct(vehicleStruct)80_storage)": {
        "encoding": "mapping",
        "key": "t_address",
        "label": "mapping(address => struct Administration.vehicleStruct)",
        "numberOfBytes": "32",
        "value": "t_struct(vehicleStruct)80_storage"
      },
      "t_mapping(t_string_memory_ptr,t_array(t_struct(VehicleCrossingTime)86_storage)dyn_storage)": {
        "encoding": "mapping",
        "key": "t_string_memory_ptr",
        "label": "mapping(string => struct Administration.VehicleCrossingTime[])",
        "numberOfBytes": "32",
        "value": "t_array(t_struct(VehicleCrossingTime)86_storage)dyn_storage"
      },
      "t_string_memory_ptr": {
        "encoding": "bytes",
        "label": "string",
        "numberOfBytes": "32"
      },
      "t_string_storage": {
        "encoding": "bytes",
        "label": "string",
        "numberOfBytes": "32"
      },
      "t_struct(VehicleCrossingTime)86_storage": {
        "encoding": "inplace",
        "label": "struct Administration.VehicleCrossingTime",
        "members": [
          {
            "astId": 83,
            "contract": "contracts/Administration.sol:Administration",
            "label": "date",
            "offset": 0,
            "slot": "0",
            "type": "t_struct(_DateTime)644_storage"
          },
          {
            "astId": 85,
            "contract": "contracts/Administration.sol:Administration",
            "label": "vehicle",
            "offset": 0,
            "slot": "1",
            "type": "t_address"
          }
        ],
        "numberOfBytes": "64"
      },
      "t_struct(_DateTime)644_storage": {
        "encoding": "inplace",
        "label": "struct DateConverter._DateTime",
        "members": [
          {
            "astId": 631,
            "contract": "contracts/Administration.sol:Administration",
            "label": "year",
            "offset": 0,
            "slot": "0",
            "type": "t_uint16"
          },
          {
            "astId": 633,
            "contract": "contracts/Administration.sol:Administration",
            "label": "month",
            "offset": 2,
            "slot": "0",
            "type": "t_uint8"
          },
          {
            "astId": 635,
            "contract": "contracts/Administration.sol:Administration",
            "label": "day",
            "offset": 3,
            "slot": "0",
            "type": "t_uint8"
          },
          {
            "astId": 637,
            "contract": "contracts/Administration.sol:Administration",
            "label": "hour",
            "offset": 4,
            "slot": "0",
            "type": "t_uint8"
          },
          {
            "astId": 639,
            "contract": "contracts/Administration.sol:Administration",
            "label": "minute",
            "offset": 5,
            "slot": "0",
            "type": "t_uint8"
          },
          {
            "astId": 641,
            "contract": "contracts/Administration.sol:Administration",
            "label": "second",
            "offset": 6,
            "slot": "0",
            "type": "t_uint8"
          },
          {
            "astId": 643,
            "contract": "contracts/Administration.sol:Administration",
            "label": "weekday",
            "offset": 7,
            "slot": "0",
            "type": "t_uint8"
          }
        ],
        "numberOfBytes": "32"
      },
      "t_struct(vehicleStruct)80_storage": {
        "encoding": "inplace",
        "label": "struct Administration.vehicleStruct",
        "members": [
          {
            "astId": 69,
            "contract": "contracts/Administration.sol:Administration",
            "label": "HGSNumber",
            "offset": 0,
            "slot": "0",
            "type": "t_uint64"
          },
          {
            "astId": 71,
            "contract": "contracts/Administration.sol:Administration",
            "label": "name",
            "offset": 0,
            "slot": "1",
            "type": "t_string_storage"
          },
          {
            "astId": 73,
            "contract": "contracts/Administration.sol:Administration",
            "label": "surname",
            "offset": 0,
            "slot": "2",
            "type": "t_string_storage"
          },
          {
            "astId": 76,
            "contract": "contracts/Administration.sol:Administration",
            "label": "vehicleClass",
            "offset": 0,
            "slot": "3",
            "type": "t_enum(vehicleType)67"
          },
          {
            "astId": 79,
            "contract": "contracts/Administration.sol:Administration",
            "label": "crossingHistories",
            "offset": 0,
            "slot": "4",
            "type": "t_array(t_uint64)dyn_storage"
          }
        ],
        "numberOfBytes": "160"
      },
      "t_uint16": {
        "encoding": "inplace",
        "label": "uint16",
        "numberOfBytes": "2"
      },
      "t_uint256": {
        "encoding": "inplace",
        "label": "uint256",
        "numberOfBytes": "32"
      },
      "t_uint64": {
        "encoding": "inplace",
        "label": "uint64",
        "numberOfBytes": "8"
      },
      "t_uint8": {
        "encoding": "inplace",
        "label": "uint8",
        "numberOfBytes": "1"
      }
    }
  }
}